:100000003EC058C0BAC056C055C054C053C052C0FC
:1000100051C050C04FC04EC04DC04CC04BC001007D
:10002000FF8E1A036900320063002D00740069001E
:100030006E0079002D007500730062001A035400F1
:1000400069006C006C0020004800610072006200D2
:10005000610075006D00040309040902120001012A
:1000600000A032090400000000000000120110018D
:10007000FF000008030431C605010102000111243C
:100080001FBECFE5D2E0DEBFCDBF10E0A0E6B0E0FE
:10009000E0EAF8E002C005900D92A636B107D9F764
:1000A00020E0A6E6B0E001C01D92A939B207E1F751
:1000B000B5D1F4C3A5CFB998C19A0895E091600075
:1000C000F09161003197F1F7882329F0BA98C29A2C
:1000D000B29BFECF02C0BA9AC29880916200909102
:1000E00063000197F1F70895B99AC19808950F93A5
:1000F0001F93CF93DF93C7E0D0E0082F10E0C80133
:100100000C2E02C0959587950A94E2F780FF02C0F5
:10011000D2DF01C0E9DF81E0D1DF80E0CFDF2197CE
:1001200070F7C9DF81E0CADFC6B380E0C7DFC695DC
:10013000C17081E08C27DF91CF911F910F910895BD
:10014000D3DF81E0BBDFB7CFA82FB92F80E090E0ED
:1001500041E050EA609530E009C02D9182279795E3
:10016000879510F084279527305EC8F36F5FA8F35A
:100170000895EADF8D939D930895CF93CFB7CF93E2
:10018000C395B39BE9F7B39B0BC0B39B09C0B39B6B
:1001900007C0B39B05C0B39B03C0B39B01C0D3C0D2
:1001A0000F92DF93C0917F00DD27CD57DF4F012EE7
:1001B000B39B03C0DF910F90E6CF2F930F931F9354
:1001C0004F932FEF4F6F06B303FB20F95F933F93DD
:1001D00050E03BE065C016B30126502953FDC89599
:1001E00056B3012703FB25F92F7306B3B1F050274F
:1001F000102713FB26F906B22230F0F000C016B328
:10020000012703FB27F90126502906B22430E8F51F
:100210004F77206816B30000F6CF50274F7D20623D
:1002200006B2102F000000C006B300265029102788
:1002300013FB26F906B2E2CF4F7B06B3206400C061
:10024000DACF01265029187106B269F14E7F21607C
:10025000012F16B328C0002650294D7F06B2226018
:10026000102F29C0012650294B7F06B22460012F90
:100270002DC016B301265029477F2860000006B222
:100280002EC04F7E06B3206130C0422706B349938B
:1002900000265029102706B24FEF13FB20F9297FC3
:1002A00016B379F2187159F10126502906B20127C7
:1002B00003FB21F9237F06B371F200265029315048
:1002C000D0F006B2102713FB22F9277E16B351F2A5
:1002D00001265029012703FB06B223F92F7C49F29E
:1002E000000006B3102713FB24F90026502906B29C
:1002F0002F7939F270CF10E21ABF002717C03B5098
:100300003195C31BD04010E21ABF0881033CF9F0BD
:100310000B34E9F020917D001981110F1213EDCFFC
:10032000093651F10D3211F0013E39F70093820088
:100330003F915F914F911F910F912F91DF910F90FE
:10034000CAB7C5FD1DCFCF91CFBFCF9118952091D2
:100350008200222369F310918000112321F53430AB
:1003600022F13093800020937E0010917F003BE0CB
:10037000311B30937F0019C00091800001309CF444
:100380000AE53091650034FD11C000936500C2E7B5
:10039000D0E010C0052710E000C021C0052710E004
:1003A000C89508BB14C03AE501C032ED032EC0E089
:1003B000D0E032E017B31861C39A08B317BB58E115
:1003C00020E84FEF20FF052708BB279517951C3F16
:1003D00028F700004552B0F720FF0527279508BBF6
:1003E00017951C3FB8F629913A9561F7077E109151
:1003F0008100110F08BBC250D04011F010937D0056
:1004000010E21ABF086017B3177E402F477E54E0F2
:100410005A95F1F708BB17BB48BB8ACF9EE088E12D
:100420000FB6F894A89581BD0FBE91BDB998C19A39
:10043000BA98C29A10926D0010926C0088B3877EB1
:1004400088BB87B3886187BB80E49CE90197F1F79B
:1004500087B3877E87BBAC9A8BB780628BBF78945B
:1004600056E5652E50E0752E6AE5C62E60E0D62E64
:100470007CE6A72E70E0B72EE6E68E2EE0E09E2EFC
:1004800001E010E0A895809180004DEF542E580EA9
:1004900057FC32C180917F00CCE0D0E0C81BD1096D
:1004A000CD57DF4F80917E008D3209F0E9C088E0A2
:1004B000581220C193EC90937200EAE5E093650036
:1004C000109271008881807609F47CC0909270004F
:1004D00080926F0089818230E9F070F4882391F076
:1004E000813009F0B6C144E050E06EE170E086E68C
:1004F00090E0C4D184E0AEC1833009F45DC088309F
:1005000040F1A7C18A81809366008B818093670048
:1005100082E0A0C18A819B81009729F090936300BB
:100520008093620004C01093630000936200809186
:1005300062009091630096958795009729F09093BB
:1005400061008093600085C110936100009360009A
:1005500080C1FC80FF0C9A8190FF03C0FF2DF160E9
:10056000FF2E80FD03C0A7DD81E0A8DDBDDD80E0BA
:10057000A5DD8F2DBCDD811108C082E080936E0067
:1005800010926D0010926C0010C081E080936E009C
:100590008E819F8190936D0080936C0029812093C0
:1005A0006B0021FF03C0892B09F4CADD8E819F8176
:1005B000892B09F059C14DC180916E00809366006E
:1005C00081E048C18A8110927B009981911106C017
:1005D00010927C002BE730E082E04DC0953019F49A
:1005E000809381003AC0963091F59B81913029F437
:1005F000B0927000A0926F0006C0923031F4D09299
:100600007000C0926F0082E11EC09330D9F4811156
:1006100006C07092700060926F0084E014C0813058
:1006200039F4ECE3F0E0F0937000E0936F0008C061
:10063000823041F482E290E09093700080936F00EA
:100640008AE101C080E090E49093710003C198308A
:1006500079F0993031F480936A002BE730E080E044
:100660000AC081E09A3009F080E02BE730E003C057
:100670002AE630E081E03093700020936F00EAC0FA
:100680008091710087FF36C080916E00452D50E04B
:10069000813049F580916C0090916D008417950729
:1006A00008F4582E4C2EEC2EFD2E8E2D8419851517
:1006B00070F480916C0090916D00019790936D00A3
:1006C00080936C00F70181917F0111DDEECF809165
:1006D0006B0081FF0CC080916C0090916D00892BA4
:1006E00031F42EDD04C060E070E0CE01D0D05110B6
:1006F00010926400109280008091650084FF9DC07C
:10070000809164008F3F09F498C0582E893010F012
:1007100028E0522E8519809364009091720088E839
:10072000892780937200552009F47AC020917100C6
:1007300027FF53C080916E00452D50E0813009F0B5
:1007400046C080916C0090916D008417950708F465
:10075000582E312C93E7E92E90E0F92E351459F1FB
:10076000C0916C00D0916D002197D0936D00C09323
:100770006C00A1DC80E0A2DC88E0282E412C81E026
:100780009DDC440CB19B03C0F42DF1604F2E80E042
:1007900095DC2A942110F3CFCD2B11F48CDC01C011
:1007A000A3DC81E08BDC80E089DC85DCF701419211
:1007B0007F013394D3CF80916B0081FF31C0809152
:1007C0006C0090916D00892B59F5BADC29C060E06E
:1007D00070E083E790E05BD023C080916F00909140
:1007E000700026FF0AC0A3E7B0E0FC01252D34917C
:1007F0003D9331962150D9F708C0DC01E3E7F0E0E2
:10080000252D3D9131932150E1F72FEF250D30E05B
:100810002F5F3F4F820F931F9093700080936F0064
:10082000652D83E790E0A5DC84E0850D8C3019F020
:100830009FEF909364008093650084E196B3987174
:1008400009F020CE8150D1F71092810010927D00E6
:1008500019CE80E09F81911104C09E81981708F401
:10086000892F8093640046CF888187FF05C08E81E1
:1008700090E890937100F5CF8FEFFACFFB01DC0188
:1008800002C005900D9241505040D8F70895DC0108
:1008900001C06D9341505040E0F70895F894FFCFA8
:0608A00005000A00FF5AEA
:00000001FF
